:020000040800F2
:1000000070970120E9020008F1020008F3020008DD
:10001000F5020008F7020008F902000800000000DD
:10002000000000000000000000000000290200089D
:10003000FD0200080000000085020008A50300087A
:100040000303000803030008030300080303000878
:100050000303000803030008030300080303000868
:100060000303000803030008030300080303000858
:100070000303000803030008030300080303000848
:100080000303000803030008030300080303000838
:100090000303000803030008030300080303000828
:1000A0000303000803030008030300080303000818
:1000B0000303000803030008030300080303000808
:1000C00003030008030300080303000803030008F8
:1000D00003030008030300080303000803030008E8
:1000E00003030008030300080303000803030008D8
:1000F00003030008030300080303000803030008C8
:1001000003030008030300080303000803030008B7
:1001100003030008030300080303000803030008A7
:100120000303000803030008030300080303000897
:100130000303000803030008030300080303000887
:100140000303000803030008030300080303000877
:100150000303000803030008030300080303000867
:100160000303000803030008030300080303000857
:100170000303000803030008030300080000000055
:10018000030300080303000800F002F800F03CF845
:100190000AA090E8000C82448344AAF10107DA45E2
:1001A00001D100F031F8AFF2090EBAE80F0013F0F8
:1001B000010F18BFFB1A43F001031847900C000011
:1001C000B00C0000103A24BF78C878C1FAD85207A2
:1001D00024BF30C830C144BF04680C6070470000C1
:1001E0000023002400250026103A28BF78C1FBD840
:1001F000520728BF30C148BF0B6070471FB500F0E1
:100200001FFE1FBD10B510BD00F091F81146FFF79D
:10021000F5FF00F08DF900F0AFF803B4FFF7F2FF3F
:1002200003BC00F0B7F800002C4B19680868B0E870
:10023000F04F80F30988BFF36F8F4FF0000080F319
:10024000118870470000000008480068006880F3CB
:1002500008884FF0000080F3148862B661B6BFF3DF
:100260004F8FBFF36F8F00DF00BF00BF08ED00E0CE
:10027000DFF80C00016841F470010160704700BFB5
:1002800088ED00E0EFF30980BFF36F8F134B1A681E
:100290001EF0100F08BF20ED108A20E9F04F10600B
:1002A00009B44FF0BF0080F31188BFF34F8FBFF345
:1002B0006F8F00F035FC4FF0000080F3118809BC0F
:1002C00019680868B0E8F04F1EF0100F08BFB0ECD6
:1002D000108A80F30988BFF36F8F704708000020F1
:1002E000EFF3058070470000094880470948004740
:1002F000FEE7FEE7FEE7FEE7FEE7FEE7FEE7FEE7D6
:10030000FEE7FEE704480549054A064B7047000032
:10031000D90300088901000870910120709701201D
:1003200070930120709301207047704770477546A5
:1003300000F02CF8AE4605006946534620F0070051
:10034000854618B020B5FFF7DDFFBDE820404FF02F
:1003500000064FF000074FF000084FF0000B21F0AF
:100360000701AC46ACE8C009ACE8C009ACE8C0097C
:10037000ACE8C0098D46704710B50446AFF3008065
:100380002046BDE81040FFF748BF00000048704716
:100390001091012001491820ABBEFEE726000200A3
:1003A0007047000010B500BFBF2080F31188BFF375
:1003B0004F8FBFF36F8F00BF00F042FC18B14FF0BA
:1003C00080500449086000BF002080F3118800BFFE
:1003D00010BD000004ED00E00548006840F4700026
:1003E000034908604FF00060014980390860704798
:1003F00088ED00E013E00A48006840F40040084936
:1004000008604FF4967000F037FB0548006840F034
:100410000040034908604FF4967000F02DFBEAE7B6
:10042000180C024013E00A48006840F400500849E4
:1004300008604FF4967000F01FFB0548006840F01C
:100440000050034908604FF4967000F015FBEAE78E
:10045000180C024040F20F1033490860334800681E
:1004600020F080703149086000BF3048006800F01B
:100470000070B0F1007FF8D02C480830006800F020
:10048000F0002A49083108600846006820F4E0506E
:1004900040F4A05008600846006820F4604040F432
:1004A000004008602148006840F480301F4908601F
:1004B00000BF1E48006800F400300028F9D01B4837
:1004C000001D006840F480001849091D08600846B6
:1004D000006820F03F00001D08600846006847F6ED
:1004E000C071884340F428501049091D086008462F
:1004F000006820F440300860081F006840F08070F9
:10050000091F086000BF0948006800F0007000285B
:10051000F9D006480830006820F00300801C034929
:100520000831086070470000003C0240003802407B
:100530001CB5FFF78FFF2848006840F008002649E7
:1005400008602648006840F080402449086023483D
:100550000830006840F080402049083108601F489A
:10056000006840F080601D4908601C480830006841
:1005700040F080601949083108601848006840F070
:1005800080701649086015480830006840F0807097
:100590001249083108600020012103463222CDE9CA
:1005A00000100FA1104800F01BFB002002210346A1
:1005B0003222CDE900100DA10E4800F011FB00F031
:1005C00075FA07E005481830006840F48050034988
:1005D00018310860F6E7000030380240000C024095
:1005E000426C696E6B000000F5030008426C696E96
:1005F0006B320000250400082DE9F04105460E4647
:100600001648076816480068001D00F0BBF9681C12
:1006100038B936B112480168091D124800F0F0F9E6
:100620001AE07C190E4800684460BC4207D20C48AE
:100630000168091D0C48006800F0C8F90CE0084882
:100640000168091D0948006800F0C0F90848006801
:10065000844201D206480460BDE8F0811C000020FD
:1006600008000020FC900120100000200C00002059
:100670003800002010B5044600F0CEF9224800688A
:10068000401C214908602148006840B91F480460A7
:100690000846006801280DD100F0CCF80AE01C489B
:1006A000006838B919480068C06AE16A884201D810
:1006B0001648046017480068401C1649086016492F
:1006C000E06A0968884202D91349E06A0860E16A71
:1006D00001EB8101114A02EB8100211D00F090F92C
:1006E00000F0ACF90A48006868B108480068C06AC0
:1006F000E16A884207D24FF0805009490860BFF391
:100700004F8FBFF36F8F10BD18000020080000202E
:100710002400002034000020200000204890012008
:1007200004ED00E010B516E000F076F90C48C06862
:10073000C468201D00F026F90A480068401E0949D7
:10074000086009480068401E0749086000F076F913
:10075000204600F00BF8044800680028E4D110BDE2
:10076000E8900120180000201400002010B5044675
:10077000206B00F073F9204600F070F910BD000006
:1007800000BFFFF7CFFF064800680128F9D94FF0F6
:10079000805004490860BFF34F8FBFF36F8FF0E7BD
:1007A0004890012004ED00E02DE9FF5F80460E46F1
:1007B0009146DDE90E7A109CA9F10100216B01EB55
:1007C000800B2BF0070B86B1002507E0715D04F16B
:1007D00034004155705D00B902E06D1C102DF5D359
:1007E00000BF00214320015502E0002084F83400BE
:1007F000052F00D30427E762201D00F0E4F804F180
:10080000180000F0E0F82461C7F10500A0616462FF
:100810000020606484F8480041465846039A00F07E
:100820009BF82060BAF1000F01D0CAF80040BDE883
:10083000FF9F000010B5002407E004EB84010F4A7D
:1008400002EB810000F0B2F8641C052CF5D30C48D3
:1008500000F0ACF80B4800F0A9F80B4800F0A6F83F
:100860000A4800F0A3F80A4800F0A0F80448094933
:10087000086004480849086010BD00004890012045
:10088000AC900120C0900120D4900120E89001207C
:10089000FC9001200C000020100000200A4909688B
:1008A000096809B9012100E0002121B14FF0FF31B1
:1008B000064A116006E004490968C968C868034A25
:1008C00041681160704700000C00002038000020D3
:1008D00000BFBF2080F31188BFF34F8FBFF36F8F2E
:1008E00000BF00BFFEE7000070B50446002504F01D
:1008F000070020B104F00700C0F10800044400F034
:1009000007F91148006820B9104820F007000E4987
:1009100008600F48006820440E49884210D20C48F5
:10092000006820440A490968884209D906480068D5
:1009300007490968451806480068204404490860CA
:1009400000F00AFA284670BD040000205000002084
:1009500000000020F88F0100001F4FF0807303603B
:10096000001F21F001030360001F054B03601438D2
:100970000260001F6FF00203036020387047000020
:10098000D108000801460A69D1E901309860D1E92F
:10099000010358605068884201D188685060002087
:1009A00008611068401E10601068704700F108016F
:1009B00041604FF0FF31816000F10801C1600161C9
:1009C00000210160704700210161704710B50246A7
:1009D0000B685C1C0CB9106907E002F1080000E02C
:1009E0004068446824689C42FAD944684C604C686A
:1009F000A160886041600A611468641C146010BDC5
:100A000042684A6093688B6093685960916008619E
:100A100003685B1C0360704700BFBF2080F3118830
:100A2000BFF34F8FBFF36F8F00BF03480068401CB8
:100A30000149086070470000440000200648006833
:100A4000401E054908600846006820B9002080F370
:100A5000118800BF00BF70474400002070470000AD
:100A600000204FF0E02108618861024848610720BA
:100A7000086170473F90020070B50446002544B1FC
:100A800000F046F800212046FFF7B6FD00F064F9BB
:100A900005463DB94FF0805003490860BFF34F8FC2
:100AA000BFF36F8F70BD000004ED00E01CB511486E
:100AB00000210B462022CDE900100FA1104800F0C4
:100AC0008FF80446012C14D100BFBF2080F3118899
:100AD000BFF34F8FBFF36F8F00BF4FF0FF30094957
:100AE000086001200849086000200849086000F0FB
:100AF00053F81CBD3C00002049444C450000000058
:100B00008107000838000020240000201C0000207D
:100B100002480068401C01490860704740000020FE
:100B20001848006818B101201749086028E0002023
:100B3000154908601548016800E0491E01EB810075
:100B4000134A52F8200008B9012000E000200028D4
:100B5000F3D101EB81020E4B03EB82004268526835
:100B6000426000F108024368934202D14268526831
:100B700042604268D268074B1A600448016000BFB7
:100B800070470000400000202C00002020000020C2
:100B9000489001200800002010B50E48006840F47D
:100BA0007F000C4908600846006840F07F400860FC
:100BB000FFF756FF002008490860FFF759FB074878
:100BC000006840F0404005490860FFF73DFB002009
:100BD00010BD000020ED00E04400002034EF00E0F4
:100BE0002DE9FF4F85B0804689461746DDE912ABF7
:100BF000B800FFF779FE064656B14C20FFF774FEA9
:100C000004460CB1266304E03046FFF727FF00E0FE
:100C100000247CB10020CDE900ABCDE902403A468A
:100C200049464046089BFFF7BFFD2046FFF722FDDF
:100C3000012501E04FF0FF35284609B0BDE8F08FEF
:100C40002DE9F041002739480068002866D138486E
:100C50000068451C364805608DB93648D0F80080DC
:100C600035480068334908603348C0F8008033488D
:100C70000068401C31490860FFF710FE00BF304893
:100C8000006885423AD300BF2A480068006808B966
:100C9000012000E0002020B14FF0FF30284908601B
:100CA0002BE024480068C068C4686668B54202D278
:100CB0002348066021E0201DFFF764FEA06A18B1FA
:100CC00004F11800FFF75EFE1E49E06A09688842D9
:100CD00002D91C49E06A0860E16A01EB81011A4A05
:100CE00002EB8100211DFFF78BFE1849E06A0968BD
:100CF000C96A8842C8D30127C6E700BF1348006805
:100D0000C06A00EB8000104951F82000012800D98A
:100D100001270F48006800B1012704E00D48006872
:100D2000401C0C4908603846BDE8F08140000020B6
:100D30001C0000200C0000201000002030000020CB
:100D400038000020200000204890012008000020EA
:100D50002C0000202800002070B500240026FFF79A
:100D60005BFE2E480068401E2C490860084600685B
:100D700000284ED12A48006800284AD023E029489C
:100D8000C068C46804F11800FFF7FCFD201DFFF7E0
:100D9000F9FD2549E06A0968884202D92249E06ADA
:100DA0000860E16A01EB8101204A02EB8100211D0C
:100DB000FFF726FE1E49E06A0968C96A884202D325
:100DC00001201C4908601748006808B9012000E0AC
:100DD00000200028D3D00CB1FFF760FD164805684D
:100DE00065B100BFFFF72CFF10B101201149086069
:100DF0006D1E002DF6D100200F4908600D480068D7
:100E000038B1012630070D490860BFF34F8FBFF39B
:100E10006F8FFFF713FE304670BD000040000020CA
:100E200018000020D49001202000002048900120CC
:100E3000080000202C0000202800002004ED00E025
:100E40004FF04070E1EE100A704700006C0E000891
:100E50000000002048000000C4010008B40E000893
:100E60004800002028970100E00100080000000071
:100E70000000000000000000000000000000000072
:100E80000000000000000000000000000000000062
:100E90000000000000000000000000000000000052
:100EA0000000000000000000000000000000000042
:040EB000AAAAAAAA96
:040000050800018965
:00000001FF
