:020000040800F2
:10000000600600200D020008150200081702000813
:10001000190200081B0200081D0200080000000071
:100020000000000000000000000000001F020008A7
:100030002102000800000000230200082502000839
:1000400027020008270200082702000827020008EC
:1000500027020008270200082702000827020008DC
:1000600027020008270200082702000827020008CC
:1000700027020008270200082702000827020008BC
:1000800027020008270200082702000827020008AC
:10009000270200082702000827020008270200089C
:1000A000270200082702000827020008270200088C
:1000B000270200082702000827020008270200087C
:1000C000270200082702000827020008270200086C
:1000D000270200082702000827020008270200085C
:1000E000270200082702000827020008270200084C
:1000F000270200082702000827020008270200083C
:10010000270200082702000827020008270200082B
:10011000270200082702000827020008270200081B
:10012000270200082702000827020008270200080B
:1001300027020008270200082702000827020008FB
:1001400027020008270200082702000827020008EB
:1001500027020008270200082702000827020008DB
:1001600027020008270200082702000827020008CB
:1001700027020008270200082702000800000000EC
:10018000270200082702000800F002F800F02EF80D
:100190000AA090E8000C82448344AAF10107DA45E2
:1001A00001D100F023F8AFF2090EBAE80F0013F006
:1001B000010F18BFFB1A43F00103184708030000A2
:1001C000180300000023002400250026103A28BF51
:1001D00078C1FBD8520728BF30C148BF0B607047B9
:1001E0001FB500F069F91FBD10B510BD00F031F862
:1001F0001146FFF7F5FF00F0E3F800F04FF803B405
:10020000FFF7F2FF03BC00F057F8000009488047F1
:1002100009480047FEE7FEE7FEE7FEE7FEE7FEE7E8
:10022000FEE7FEE7FEE7FEE704480549054A064B00
:1002300070470000C9020008890100086000002022
:1002400060060020600200206002002070477047B6
:100250007047754600F02CF8AE46050069465346D7
:1002600020F00700854618B020B5FFF7DDFFBDE898
:1002700020404FF000064FF000074FF000084FF00D
:10028000000B21F00701AC46ACE8C009ACE8C0099E
:10029000ACE8C009ACE8C0098D46704710B504460B
:1002A000AFF300802046BDE81040FFF7A8BF000074
:1002B000004870470000002001491820ABBEFEE74F
:1002C00026000200704700000548006840F47000F6
:1002D000034908604FF000600149803908607047A9
:1002E00088ED00E040F20F103349086033480068A1
:1002F00020F080703149086000BF3048006800F08D
:100300000070B0F1007FF8D02C480830006800F091
:10031000F0002A49083108600846006820F4E050DF
:1003200040F4A05008600846006820F4604040F4A3
:10033000004008602148006840F480301F49086090
:1003400000BF1E48006800F400300028F9D01B48A8
:10035000001D006840F480001849091D0860084627
:10036000006820F03F00001D08600846006847F65E
:10037000C071884340F428501049091D08600846A0
:10038000006820F440300860081F006840F080706A
:10039000091F086000BF0948006800F000700028CD
:1003A000F9D006480830006820F00300801C03499B
:1003B0000831086070470000003C024000380240ED
:1003C0003A48006840F00800384908603748103063
:1003D000006840F004003549103108603448006876
:1003E00020F04060324908600846006840F0006034
:1003F00008602F480C30006840F000602C490C3138
:1004000008602B482430006840F40010284924314B
:1004100008602748001D006820F400502449091D89
:100420000860081D006840F04060091D0860214810
:10043000006840F4C0401F4908601E481838006832
:1004400020F010001B49183908600846006820F4A5
:10045000407008604BF6803016491031086040F259
:10046000D170091D08604010124920310860114800
:100470000830006820F020000E4908310860084666
:10048000006820F0800008600846006840F0100016
:10049000086008481838006840F00100054918391C
:1004A0000860FFF71FFF00BFFEE700003038024082
:1004B000000C0240180800404FF04070E1EE100AB6
:1004C00070470000D404000800000020600600000F
:0404D000C40100085B
:040000050800018965
:00000001FF
